:020000040800F2
:10000000B8070020290200088F170008BB14000859
:100010008D1700081F0400085F1C00080000000086
:10002000000000000000000000000000BB180008F5
:100030002104000800000000B9180008BD180008DD
:10004000430200084302000843020008430200087C
:10005000430200084302000843020008430200086C
:10006000430200084302000843020008430200085C
:10007000430200084302000843020008430200084C
:10008000430200084302000843020008430200083C
:10009000430200084302000843020008430200082C
:1000A000430200084302000843020008430200081C
:1000B000430200084302000843020008430200080C
:1000C00043020008430200084302000843020008FC
:1000D00043020008430200084302000843020008EC
:1000E00043020008430200084302000843020008DC
:1000F000711900086519000843020008430200084E
:1001000043020008430200084302000843020008BB
:1001100043020008430200084302000843020008AB
:10012000430200084302000843020008430200089B
:10013000430200084302000843020008430200088B
:10014000430200084302000843020008430200087B
:10015000430200084302000843020008430200086B
:10016000430200084302000843020008430200085B
:100170004302000843020008430200080000000098
:10018000430200084302000800F002F800F03CF8C7
:100190000AA090E8000C82448344AAF10107DA45E2
:1001A00001D100F031F8AFF2090EBAE80F0013F0F8
:1001B000010F18BFFB1A43F001031847201D000070
:1001C000401D0000103A24BF78C878C1FAD8520701
:1001D00024BF30C830C144BF04680C6070470000C1
:1001E0000023002400250026103A28BF78C1FBD840
:1001F000520728BF30C148BF0B6070471FB501F0E0
:100200005FFE1FBD10B510BD00F0CFF81146FFF71F
:10021000F5FF01F025FE00F0EDF803B4FFF7F2FF63
:1002200003BC00F0F5F80000094880470948004782
:10023000FEE7FEE7FEE7FEE7FEE7FEE7FEE7FEE796
:10024000FEE7FEE704480549054A064B70470000F3
:100250005519000889010008B8010020B8070020DE
:10026000B8030020B803002053EA020C00F06980B4
:100270002DE9F04B4FF00006002B1FBFB3FA83F5BA
:1002800003FA05F424FA05F65E4012BF1643B2FAEB
:1002900082F502FA05F4C5F120051EBF22FA05FC1D
:1002A00044EA0C04203556EA044C4FEA144418BFC3
:1002B000641C4FF000084FF00009904271EB030CF2
:1002C00039D3002919BFB1FA81F701FA07F6B0FA5C
:1002D00080F700FA07F6C7F120071EBF20FA07FCD7
:1002E00046EA0C062037B6FBF4FCA7EB0507103FE7
:1002F00007F01F0BCBF120060CFA0BFB2CFA06F6CD
:1003000044BFB3460026202FA4BF5E464FF0000B2B
:100310005BEA060C08BF4FF0010B19EB0B09ABFBB6
:10032000027C48EB0608C01B06FB02CC0BFB03CC8F
:1003300071EB0C01C1E70B46024641464846BDE859
:10034000F08B13B54FF000004FF00001AFF30080C9
:10035000BDE81C4070474FF0000200B513469446BC
:100360009646203922BFA0E80C50A0E80C50B1F10D
:100370002001BFF4F7AF090728BFA0E80C5048BF21
:100380000CC05DF804EB890028BF40F8042B08BFBF
:10039000704748BF20F8022B11F0804F18BF00F8BB
:1003A000012B7047704770477047754600F02CF876
:1003B000AE4605006946534620F00700854618B052
:1003C00020B5FFF73FFFBDE820404FF000064FF09B
:1003D00000074FF000084FF0000B21F00701AC467A
:1003E000ACE8C009ACE8C009ACE8C009ACE8C00999
:1003F0008D46704710B50446AFF300802046BDE837
:100400001040FFF70ABF0000004870475401002069
:1004100001491820ABBEFEE7260002007047FEE748
:10042000704772B6FEE7000070B5044600F006F9AA
:100430000546601C02D004480078044400F0FEF831
:10044000401BA042FAD370BD080000202DE9F84FF0
:10045000DFF8BCA10022012503264FF00F090AF1A5
:10046000040BAAF1040E00BF0B6805FA02F4234046
:10047000A34270D10F7907F00307012F01D0022F9B
:1004800016D187684FEA420806FA08FC27EA0C07EB
:10049000D1F80CC00CFA08FC4CEA070CC0F808C0F4
:1004A0004768A7430C79C4F3001494403C4344606C
:1004B0000C79E443A4070AD0C4684FEA420C06FA58
:1004C0000CF7BC438F6807FA0CF72743C7600C7919
:1004D00004F00304022C12D1D40800EB840CDCF8E5
:1004E00020405707FF0E09FA07F824EA0804D1F85C
:1004F000108008FA07F848EA0408CCF8208004685D
:100500004FEA420C06FA0CF7BC430F7907F00307D9
:1005100007FA0CF7274307604C6814F4403F70D08B
:100520003C4C276847F480472760246822F0030783
:1005300004F480440094384C07EB040CDCF80848C1
:1005400097074FEA177809FA08F7BC43334FB842C8
:1005500002D1002724E054E0314FB84201D10127F5
:100560001EE0304FB84201D1022719E02E4FB842A9
:1005700001D1032714E02D4FB84201D104270FE029
:100580002B4FB84201D105270AE02A4FB84201D1CA
:10059000062705E0284FB84201D1072700E00827C9
:1005A00007FA08F72743CCF80878DAF800405746EE
:1005B000D1F804C09C435FEACC2C00D51C433C60BE
:1005C000DBF800405F46D1F804C09C435FEA8C2C06
:1005D00000D51C433C60DEF800407746D1F804C0EB
:1005E0009C435FEA8C3C00D51C433C60084F083FAD
:1005F0003C68D1F804C09C435FEACC3C00D51C4366
:100600003C60521C102AFFF42FAFBDE8F88F0000A9
:10061000083C0140443802400030014000000240E4
:100620000004024000080240000C0240001002409A
:100630000014024000180240001C0240014880687B
:1006400070470000080000200248816802781144C9
:1006500081607047080000200B4810B5016841F424
:1006600000710160016841F480610160016841F43A
:1006700080710160032000F06FF80F2000F006F891
:1006800000F024F8002010BD003C024070B50D4D74
:1006900004464FF47A712878B1FBF0F00A490968F2
:1006A000B1FBF0F000F0EAFA48B9102C07D20022B2
:1006B0002146501E00F030F800206C6070BD012013
:1006C00070BD000008000020140000200A4808B592
:1006D000016841F480410160006800F480400090AE
:1006E0000548001F016841F080510160006800F07A
:1006F0008050009008BD000044380240002809DB0B
:1007000000F01F02012191404009800000F1E0202B
:10071000C0F8001170470000F0B40E4B1B680C4687
:10072000C3F30223C3F10705042D00D90425191DC5
:10073000072901D2002300E0DB1E012606FA05F19D
:10074000491E214099409E40761E16403143F0BC20
:1007500001F086BA0CED00E0064900F007020868D7
:100760004FF6FF03184040EA0220034A1043086096
:10077000704700000CED00E00000FA052DE9F0479D
:100780000E46050065D0DFF81481D8F80000F7B2F6
:1007900000F00700B04207D288F80070D8F80000D7
:1007A00000F00700B04254D128683D4C810712D5B3
:1007B000400703D5206840F4E05020602878000707
:1007C00003D5206840F4604020602068A96820F0CC
:1007D000F000084320602878C0072DD030496868B1
:1007E0000839012812D0022813D0032811D0096833
:1007F000890700292DDA216821F0030101432160D6
:10080000FFF71CFF814641F2883A0EE00968890330
:10081000EFE709688901ECE7FFF710FFA0EB09019A
:10082000514502D90320BDE8F0872068696800F0CF
:100830000C00B0EB810FEFD1D8F80010404601F06A
:100840000701B14207D90770006800F00700B04205
:1008500001D00120E7E72878400705D52068E9683E
:1008600020F4E050084320602878000706D520686F
:10087000296920F4604040EAC100206000F018F8C7
:100880002168084AC1F30311515CC8400649086059
:1008900006480068FFF7FAFE0020C4E7003C02406B
:1008A00008380240CA1E0008140000200C00002076
:1008B000154810B5006810F00C02144813D0411010
:1008C000042A0FD0082A0ED10F4C241F2268236857
:1008D00002F03F025B0207D52068C0F38810A0FB3E
:1008E000010106E0084610BD2168C1F38811A1FB93
:1008F00000010023FFF7B8FC2168C1F30141491C46
:100900004900B0FBF1F010BD083802400024F400AB
:100910002DE9F84F04006ED02078DFF84C93C00723
:10092000A9F104054AD009F104000168C1F381016D
:10093000012908D00068C0F3810002280AD1D9F843
:100940000000400206D52868800337D5606800287B
:10095000E1D033E06068B0F5803F10D0B0F5A02F53
:10096000286810D020F480302860286820F4802087
:1009700028606068A8B1FFF761FE06460DE02868B0
:1009800040F48030F4E740F480202860F7E700BFAF
:10099000FFF754FE801B642873D828688003F7D5BE
:1009A0000CE0FFF74BFE064605E000BFFFF746FEF2
:1009B000801B6428F0D828688003F7D42078DFF8FB
:1009C000AC8280074FF0000A3ED5A748001D0168A1
:1009D00011F00C0F08D00068C0F3810002280BD181
:1009E000D9F80000400207D42868800716D5E068CF
:1009F000012800D112E033E1E068B8B10120C8F865
:100A00000000FFF71BFE064605E000BFFFF716FEDD
:100A1000801B0228C0D828688007F7D5286821697C
:100A200020F0F80040EAC10028600DE0C8F800A0FE
:100A3000FFF704FE064604E0FFF700FE801B0228D5
:100A40001FD828688007F7D42078000722D5864F62
:100A500087486169703771B101210160FFF7EEFDD0
:100A6000064604E0FFF7EAFD801B022809D8386833
:100A70008007F7D50EE0C0F800A0FFF7DFFD0646BF
:100A800005E082E0FFF7DAFD801B02287DD8386898
:100A90008007F7D42078400768D5DFF8CCB100276D
:100AA0000BF13C0BDBF80000C0000BD4DBF80010AE
:100AB00041F08051CBF80010DBF80000012700F076
:100AC000805000906B4E3068C00510D4306840F400
:100AD00080703060FFF7B2FD009005E0FFF7AEFDDB
:100AE0000099401A022850D83068C005F6D55E4EED
:100AF000A0686C3601280FD00528306810D020F08F
:100B000001003060306820F004003060A068B8B1A7
:100B1000FFF794FD00900FE0306840F00100F4E72B
:100B200040F004003060F7E7FFF788FD0099411AB4
:100B300041F28830814266D830688007F4D50EE0F3
:100B4000FFF77CFD009007E0FFF778FD0099411A60
:100B500041F28830814256D830688007F4D42FB1F2
:100B6000DBF8001021F08051CBF80010A069C8B369
:100B70003D49091D0968C1F3810102294AD00228B3
:100B8000504607D0C8F8600000E03CE0FFF756FD93
:100B900004463BE04746C8F86000FFF74FFD0646B5
:100BA00005E000BFFFF74AFD801B02282BD828680C
:100BB0008001F7D4D4E907010843A16A2E4A490805
:100BC00002EB0141626A41EA8211084394F82C1059
:100BD00040EA0161C9F8001001203866FFF72EFDD8
:100BE000044606E03EE000BFFFF728FD001B022898
:100BF00009D828688001F7D534E000BFFFF71EFD53
:100C0000001B022802D90320BDE8F88F2868800164
:100C1000F4D427E00128F7D0D9F80000E26900F405
:100C2000800191421CD1226A00F03F01914217D10C
:100C300047F6C071626A0140B1EB821F10D1A26A0F
:100C40004FF0FF3300F4403103EB5202B1EB024F9F
:100C500006D194F82C1000F07060B0EB016F01D059
:100C60000120D1E70020CFE70438024000004742CE
:100C7000800E4742007000400000FFFF10B5401E8C
:100C8000B0F1807F01D3012010BD4FF0E0246061FE
:100C90000F21601700F0E4FF0020A0610720206111
:100CA000002010BD7047704710B590F83C20012A15
:100CB00022D0012280F83C20CA688C6822F440725D
:100CC00022434C6822F4806222430C6822F40062C2
:100CD00022430C6922F4805222434C6922F40052D0
:100CE0002243C969002322F480420A4301684A640E
:100CF00080F83C30002010BD022010BD70B590F887
:100D00003C20012A32D0012480F83C40022280F8A5
:100D10003D2003685A689D6822F070060A683243D5
:100D20005A60134B02689A4214D0B2F1804F11D02E
:100D3000104B9A420ED0104B9A420BD00F4B9A4256
:100D400008D00F4B9A4205D00E4B9A4202D00E4B60
:100D50009A4204D1496825F080031943916080F8D4
:100D60003D40002180F83C10084670BD022070BD57
:100D7000000001400004004000080040000C00405A
:100D800000040140004001400018004010B504007C
:100D900003D094F83D0010B107E0012010BD002001
:100DA00084F83C00204600F01FF8022084F83D0043
:100DB000211D206800F0E2FD012084F8460084F83F
:100DC0003E0084F83F0084F8400084F8410084F835
:100DD000420084F8430084F8440084F8450084F815
:100DE0003D00002010BD000008B501681A4881428E
:100DF00009D11A48016841F001010160006800F062
:100E00000100009008BD1548154A001F91420ED1FF
:100E1000016841F0800101600068002200F080005C
:100E2000009011462C20FFF777FC2C2010E00D4A93
:100E30009142E7D1016841F48071016000680022AD
:100E400000F48070009011462D20FFF765FC2D20E6
:100E5000BDE80840FFF752BC0000014044380240A2
:100E6000001C00400020004070B5044690F83C0093
:100E70000025012817D0012684F83C60022084F860
:100E80003D002068826822F0770222F47F4282606F
:100E90000868502838D00DDC20284FD005DC90B3EE
:100EA000102811D14AE0022070BD302846D04028D9
:100EB0000AD13BE060282FD070280DD0B0F5805FBC
:100EC00003D0B0F5005F12D0012584F83D6000200A
:100ED00084F83C00284670BDCB68D1E90121206828
:100EE00000F0C5FD2068816841F0770109E0CB681A
:100EF000D1E90121206800F0BAFD2068816841F441
:100F000080418160E1E719E0CA684968206800F023
:100F100083FE5021206806E0CA684968206800F016
:100F20008CFE6021206800F0ACFDCEE7CA684968FD
:100F3000206800F071FE40212068F4E72268014635
:100F40001046F0E72DE9F0410D46040003D094F877
:100F50003D0018B108E00120BDE8F081002084F8D0
:100F60003C00204600F040F8022084F83D00206854
:100F7000816844F2070291438160211D206800F0DE
:100F8000FDFC226890689169166A2B68AF6903437B
:100F900040F20330814341EA0721A868EF69084322
:100FA0004FF6FC418843E96840EA0720014328697D
:100FB0002F6A000140EA0730084369686D6926F02E
:100FC000AA0646EA0515294393602268906154F801
:100FD000460B0162012004F81F09E0752076E076D7
:100FE0002077A0750020B7E770B586B004461421BD
:100FF0006846FFF7B0F92068B0F1804F32D11A4847
:101000000024016841F001010160006800F0010066
:10101000059015481038016841F001010160016830
:1010200001F001010591016841F0020101600068D1
:10103000022500F0020005904FF400400090CDE939
:1010400001540126CDE9034669460848FFF7FEF939
:1010500008200090CDE90154CDE9034669460448D3
:10106000FFF7F4F906B070BD4038024000000240BE
:101070000004024070B590F83E60044690F83F507E
:1010800090F8423090F84320022021B104290ED07C
:10109000012E1BD114E0012E18D1012B16D184F89A
:1010A0003E0084F8420001220021206820E0012D4A
:1010B0000CD1012A0AD184F83F0084F8430014E0DF
:1010C000012D03D1012B01D1012A01D0012070BDD6
:1010D00084F83E0084F83F0084F8420084F843001E
:1010E00001220021206800F0B5FC012204212068C3
:1010F00000F0B0FC2068016841F0010101600020AF
:1011000070BD70472DE9F04104460068C668056966
:101110004FF00007A90713D5B10711D5F91E0161DA
:1011200001202077206880698007204602D0FFF7E1
:10113000E8FF04E000F0A8F8204600F03AF927772D
:10114000680716D5700714D521686FF00400086190
:10115000022020772068806910F4407F204602D06A
:10116000FFF7CFFF04E000F08FF8204600F021F9F0
:101170002777280715D5300713D521686FF00800A9
:101180000861042020772068C0698007204602D0CB
:10119000FFF7B7FF04E000F077F8204600F009F908
:1011A0002777E80616D5F00614D521686FF01000F1
:1011B0000861082020772068C06910F4407F20462D
:1011C00002D0FFF79EFF04E000F05EF8204600F03A
:1011D000F0F82777E80708D0F00706D021686FF00D
:1011E00001000861204600F049F9280608D53006BC
:1011F00006D521686FF0800008612046FFF752FD98
:10120000680608D5700606D521686FF040000861B1
:10121000204600F051F9A8060AD5B00608D5216885
:101220006FF0200008612046BDE8F041FFF73BBDAC
:10123000BDE8F08110B586B0044614216846FFF77A
:101240008AF80E492068884216D10D4800210268AC
:1012500042F010020260006800F0100005904FF4A8
:10126000206000900220CDE901010390012004904C
:1012700069460448FFF7EAF806B010BD00000140D7
:101280003038024000100240704770B5044690F8B4
:101290003C0000260D4601280FD0012084F83C00B8
:1012A0006AB1042A1DD0082A2FD00C2A3FD001266B
:1012B000002084F83C00304670BD022070BD2068DC
:1012C00000F0E8FB2068816941F008018161206835
:1012D000816921F004018161206881692A691143D3
:1012E00011E0206800F006FC2068816941F400618B
:1012F00081612068816921F4806181612068816950
:101300002A6941EA02218161D2E7206800F028FCC5
:101310002068C16941F00801C1612068C16921F0FC
:101320000401C1612068C1692A69114311E0206884
:1013300000F04AFC2068C16941F40061C161206885
:10134000C16921F48061C1612068C1692A6941EAEB
:101350000221C161ACE710B5040003D094F83D0050
:1013600010B107E0012010BD002084F83C002046A9
:1013700000F01EF8022084F83D00211D206800F0D6
:10138000FDFA012084F8460084F83E0084F83F000E
:1013900084F8400084F8410084F8420084F8430057
:1013A00084F8440084F8450084F83D00002010BD16
:1013B0007047704710B50446022249B104290ED087
:1013C000082913D094F84100012816D0012010BD3F
:1013D00094F83E000128F9D184F83E200FE094F8FB
:1013E0003F000128F2D184F83F2008E094F8400043
:1013F0000128EBD184F8402001E084F8412001224B
:10140000206800F027FB16492068164A884201D060
:10141000904203D1436C43F4004343642068884204
:1014200013D0B0F1804F10D00F4988420DD00F4932
:1014300088420AD00E49884207D0904205D00D4913
:10144000884202D00C49884204D1816801F007012A
:10145000062903D0016841F001010160002010BDA0
:10146000000001400004014000040040000800406A
:10147000000C0040004001400018004010B5044638
:101480000A48844208D10A4800F014FC084800F0D9
:1014900004FC074800F0BCFC0648844204D1BDE8C7
:1014A0001040034800F0ECBB10BD00000C01002010
:1014B00018000020C40000207047FEE700210160F2
:1014C0007047012101607047C16D0A68526A12B20B
:1014D000C260096800204862704790ED020AF8EE89
:1014E000C00A90ED030A1030B8EEC00A00F050B9FF
:1014F000026802B9002141607047816D03680A6883
:101500000021012B10D0C36EB3B3042B3FD0082BA6
:101510003FD01164826EE2B1042A1ED0806D082A89
:1015200000681ED0016470478368002B1BDB836E4C
:101530003BB1042B08D0082B436808D01364C26E5B
:10154000E9E743685363FAE743689363F7E7D363D4
:10155000F5E7806D006841637047806D00688163C6
:101560007047C1637047C36E3BB1042B08D0082B92
:10157000436808D01364CDE707E043685363C9E7C5
:1015800043689363C6E7D363C4E75163C2E79163DB
:10159000C0E7D163BEE7816070470000114808B51D
:1015A000016841F080010160016801F08001009153
:1015B000016841F010010160016801F01001009123
:1015C000016841F001010160016801F00101009131
:1015D000016841F002010160006800F00200009023
:1015E00008BD0000303802400B4810B509490160C1
:1015F00000214FF6FF724160C0E902120161816172
:10160000FFF7C4FB002803D0BDE81040FEF709BF78
:1016100010BD0000001C0040C40000200B4810B5A5
:101620000949016000214FF6FF724160C0E90212D2
:1016300001618161FFF7AAFB002803D0BDE81040DB
:10164000FEF7EFBE10BD0000002000400C0100209E
:1016500010B596B000240F94109411941294139422
:101660001C2168461494FEF776FE202107A8FEF799
:1016700072FE2C482A4901604FF45271C0E90114EE
:10168000C821C0E9031444618461FFF77FFB08B1FE
:10169000FEF7C7FE4FF480500F900FA92148FFF7C7
:1016A000E3FB08B1FEF7BDFE1E48FFF754FE08B18C
:1016B000FEF7B7FE139413A91A481494FFF71EFB04
:1016C00008B1FEF7AEFE6020CDE900040294039459
:1016D000049405940022694612480694FFF7D5FD4C
:1016E00008B1FEF79EFE042269460E48FFF7CDFDC5
:1016F00008B1FEF796FE0794089409944FF4005041
:101700000A94CDE90B4007A906480E94FFF7CCFADE
:1017100008B1FEF786FE0348FFF78CFD16B010BD3A
:10172000000001403400002010B58CB02421684630
:10173000FEF711FE0024144809944FF080410A94EA
:10174000C0E90014611EC0E9024104618461012006
:10175000CDE90004CDE902040494CDE905400794E5
:10176000694609480894FFF7EDFB08B1FEF759FEFA
:10177000099409A904480A94FFF7C0FA002801D087
:10178000FEF74FFE0CB010BD7C000020FEE7FEE728
:10179000A0B1D0ED101AC0ED111A90ED0F1A80ED26
:1017A000101AC0ED060A80ED070A30EEC00A80ED7F
:1017B0000F0A017829B101294CD14EE09FED3D0A75
:1017C0007047D0ED010A60EE801AC0ED091AD0ED25
:1017D0000A0A90ED022A42EE000A30EE410AC0EDFC
:1017E0000A0A90ED0D2A80ED0E2A90ED0C2A80ED6C
:1017F0000D2A80ED0C0A90ED031A21EE001A80EDFF
:101800000B1A90ED050AF4EEC00AF1EE10FA09DCAD
:10181000B1EE400AF4EEC00AF1EE10FA02D390EDF8
:101820000A0A01E080ED0A0A31EE800A30EE010A70
:1018300080ED080AD0ED040AB4EEE00AF1EE10FAE9
:1018400006DCF1EE600AB4EEE00AF1EE10FA01D225
:10185000C0ED080A90ED080A704770EE410A90ED5D
:10186000012A60EE820AC0ED090A90ED022A22EEFA
:10187000002A80ED0A2AD0ED0D2A70EE820AC0ED12
:101880000E2AD0ED0C2AC0ED0D2AF0EE002A01EE52
:10189000620A30EE210A80ED0C0A90ED031A21EE67
:1018A000000A80ED0B0A30EE800AD0ED080A30EE17
:1018B000200ABDE70000000070477047FEF7C4BE75
:1018C00030B593B030216846FEF745FD14210CA8D1
:1018D000FEF741FD1D480025016841F0805101607F
:1018E000006800F0805011901948016841F480416F
:1018F00001600068022400F48040119001200090F3
:10190000000401908001CDE9064008AA0420A82126
:1019100082E813000B906846FEF7FAFF08B172B632
:10192000FEE70CA90F2081E831004FF4A0500F9082
:101930004FF48050109005210CA8FEF71FFF0028DF
:1019400001D072B6FEE713B030BD0000403802404F
:10195000007000400248016841F470010160704766
:1019600088ED00E00148FFF7CDBB00000C0100202E
:101970000148FFF7C7BB0000C4000020F0B50268B3
:10198000294C2A4D2A4E2B4F2B4B4FF0804CA04216
:1019900009D0604507D0A84205D0B04203D0B84274
:1019A00001D0984204D122F0700E4A6842EA0E0239
:1019B000A0421BD0604519D0A84217D0B04215D024
:1019C000B84213D0984211D01C4DA8420ED01C4DE5
:1019D000A8420BD01B4DA84208D01B4DA84205D0F1
:1019E0001A4DA84202D01A4DA84203D122F44075E4
:1019F000CA682A434D6922F080022A4302608A683D
:101A0000C2620A688262A04201D0984201D109698B
:101A10000163012141610169C90703D0016921F016
:101A200001010161F0BD0000000001400004004020
:101A300000080040000C004000040140004001404C
:101A4000004401400048014000180040001C0040D4
:101A50000020004010B501F01F030121046A9940E5
:101A60008C430462016A9A401143016210BD10B5B3
:101A7000846842EA032224F47F440A4322438260BA
:101A800010BD826822F070020A4342F007018160B3
:101A900070470000F0B5036A026A22F00102026298
:101AA00042688469124E24F073050C682C4323F0BD
:101AB00002058B682B430D4DA84201D0B04205D1E1
:101AC00023F00807CB683B4323F00403A84201D06E
:101AD000B04205D14D6922F4407215438A692A4308
:101AE00042608461496841630362F0BD00000140C7
:101AF00000040140F0B5026A036A23F01003036298
:101B0000436884690D6824F4E64444EA05248D683A
:101B100022F0200242EA05120F4D104EA84201D0D9
:101B2000B04206D1CF6822F0800242EA071222F0CA
:101B30004002A84201D0B04207D14D6923F440636E
:101B400043EA85038D6943EA8503436084614968FC
:101B500081630262F0BD000000000140000401400A
:101B6000F0B5026A036A23F4807303624368C469B0
:101B700022F4007224F073050C68124E2C438D6819
:101B800042EA05220E4DA84201D0B04206D1CF68EC
:101B900022F4006242EA072222F48062A84201D0C5
:101BA000B04207D14D6923F4405343EA05138D69D0
:101BB00043EA05134360C4614968C1630262F0BD32
:101BC000000001400004014030B5046A026A22F4BA
:101BD000805202624268C3690D6823F4E64343EA17
:101BE00005238D6824F4005444EA0534084DA842C6
:101BF00002D0084DA84204D14D6922F4804242EA45
:101C000085124260C36149680164046230BD00000E
:101C1000000001400004014010B5036A046A24F08A
:101C200001040462846924F0F00444EA021423F0FD
:101C30000A020A438461026210BD10B5036A046A95
:101C400024F010040462846923F0A00324F4704497
:101C500044EA023243EA01118261016210BDFEE7EB
:101C60000907090E002804DB00F1E02080F80014C9
:101C7000704700F00F0000F1E02080F8141D70475D
:101C800010B504464068FFF71FFCA068FFF71CFC76
:101C9000E068BDE81040FFF717BC10B50446406887
:101CA000FFF71BFCA068FFF718FCE068BDE81040D8
:101CB000FFF713BC10B504462DED048B0068E8B3A4
:101CC00001287DD16068FFF7FCFBA068FFF7F9FBF6
:101CD000E068FFF7F6FB2169A069F6EE009A0A18A2
:101CE000494200EE901A00EE102AF8EEE00AB8EE33
:101CF000C00A20EEA92AD4ED050AB8EEE01ADFEDFD
:101D0000411AF8EEE00AB0EE408A01EE212A01EE17
:101D1000100AB8EEC11A32EE019A01EE101AB8EEAE
:101D2000C11AB4EEC89A21EE211A00EEE91A00EEAB
:101D3000900AF8EEE00A71EE208A00E022E0F1EE6F
:101D400010FA01DDB0EE498AF4EEC88AF1EE10FA1D
:101D500001DDB0EE688A18EE100A2B49884209DDD1
:101D60009FED2A1AC1EE080A20EE200A29EE209AD9
:101D700068EEA08AB5EEC00AF1EE10FA0FDB30EE85
:101D8000290A0EE06068FFF799FBA068FFF796FB51
:101D9000E068BDEC048BBDE81040FFF78FBB30EE70
:101DA000690A6068BDEEC00A10EE101AFFF7F3FB77
:101DB000B5EEC09AF1EE10FA03DB39EE290A02E023
:101DC0001DE039EE690AA068BDEEC00A10EE101AD7
:101DD000FFF7E1FBF5EEC08AF1EE10FA02DB38EE18
:101DE000A90A01E038EEE90AE068BDEC048BBDEE1B
:101DF000C00ABDE8104010EE101AFFF7CCBBBDECD6
:101E0000048B10BDD7B35D3F00004842000048423C
:101E100010B50446406890ED0C0ABDEEC00A10EE05
:101E2000101AFFF765FBA06890ED0C0ABDEEC00A22
:101E300010EE101AFFF75CFBE06890ED0C0ABDEEA7
:101E4000C00A10EE101AFFF753FB6068FFF755FB4E
:101E5000A068FFF752FBE068BDE81040FFF74DBBFC
:101E6000FEF7FAFBFFF72CFDFFF798FBFFF75CFC92
:101E7000FFF7EEFBFFF7D2FBFFF7B6FB00210D48A3
:101E8000FFF798FA04210B48FFF794FA04210A4857
:101E9000FFF7F0F8074F084D084C002639682088F6
:101EA00048632868416A09B2616046620A20FEF709
:101EB000BBFAF3E7340000207C0000200000002083
:101EC0004FF04070E1EE100A704700000000000083
:101ED000000001020304060708090000FC1E0008B8
:101EE0000000002018000000C4010008141F0008B2
:101EF00018000020A0070000E0010008000000001A
:101F000000000000010000001000000000000000C0
:041F10000024F400B5
:040000050800018965
:00000001FF
